{
  "contractName": "Verify",
  "abi": [
    {
      "anonymous": false,
      "inputs": [
        {
          "indexed": true,
          "internalType": "uint256",
          "name": "claimId",
          "type": "uint256"
        },
        {
          "indexed": true,
          "internalType": "address",
          "name": "initiator",
          "type": "address"
        },
        {
          "indexed": true,
          "internalType": "address",
          "name": "authority",
          "type": "address"
        },
        {
          "indexed": false,
          "internalType": "string",
          "name": "ipfsHash",
          "type": "string"
        }
      ],
      "name": "ClaimCreated",
      "type": "event"
    },
    {
      "anonymous": false,
      "inputs": [
        {
          "indexed": true,
          "internalType": "uint256",
          "name": "claimId",
          "type": "uint256"
        },
        {
          "indexed": true,
          "internalType": "address",
          "name": "authority",
          "type": "address"
        },
        {
          "indexed": false,
          "internalType": "string",
          "name": "signature",
          "type": "string"
        },
        {
          "indexed": false,
          "internalType": "string",
          "name": "ipfsHash",
          "type": "string"
        }
      ],
      "name": "ClaimSigned",
      "type": "event"
    },
    {
      "inputs": [],
      "name": "claimCount",
      "outputs": [
        {
          "internalType": "uint256",
          "name": "",
          "type": "uint256"
        }
      ],
      "stateMutability": "view",
      "type": "function"
    },
    {
      "inputs": [
        {
          "internalType": "uint256",
          "name": "",
          "type": "uint256"
        }
      ],
      "name": "claims",
      "outputs": [
        {
          "internalType": "address",
          "name": "requester",
          "type": "address"
        },
        {
          "internalType": "address",
          "name": "authority",
          "type": "address"
        },
        {
          "internalType": "string",
          "name": "ipfsHash",
          "type": "string"
        },
        {
          "internalType": "string",
          "name": "signature",
          "type": "string"
        },
        {
          "internalType": "bool",
          "name": "signed",
          "type": "bool"
        }
      ],
      "stateMutability": "view",
      "type": "function"
    },
    {
      "inputs": [
        {
          "internalType": "address",
          "name": "",
          "type": "address"
        },
        {
          "internalType": "uint256",
          "name": "",
          "type": "uint256"
        }
      ],
      "name": "claimsByAddress",
      "outputs": [
        {
          "internalType": "uint256",
          "name": "",
          "type": "uint256"
        }
      ],
      "stateMutability": "view",
      "type": "function"
    },
    {
      "inputs": [
        {
          "internalType": "address",
          "name": "_requester",
          "type": "address"
        },
        {
          "internalType": "address",
          "name": "_authority",
          "type": "address"
        },
        {
          "internalType": "string",
          "name": "_ipfsHash",
          "type": "string"
        }
      ],
      "name": "createClaim",
      "outputs": [],
      "stateMutability": "nonpayable",
      "type": "function"
    },
    {
      "inputs": [
        {
          "internalType": "uint256",
          "name": "_claimId",
          "type": "uint256"
        },
        {
          "internalType": "string",
          "name": "_signature",
          "type": "string"
        },
        {
          "internalType": "string",
          "name": "_ipfsHash",
          "type": "string"
        }
      ],
      "name": "signClaim",
      "outputs": [],
      "stateMutability": "nonpayable",
      "type": "function"
    },
    {
      "inputs": [
        {
          "internalType": "uint256",
          "name": "_claimId",
          "type": "uint256"
        }
      ],
      "name": "getCertSignature",
      "outputs": [
        {
          "internalType": "string",
          "name": "",
          "type": "string"
        }
      ],
      "stateMutability": "view",
      "type": "function"
    },
    {
      "inputs": [
        {
          "internalType": "uint256",
          "name": "_claimId",
          "type": "uint256"
        }
      ],
      "name": "getClaim",
      "outputs": [
        {
          "internalType": "address",
          "name": "requester",
          "type": "address"
        },
        {
          "internalType": "address",
          "name": "authority",
          "type": "address"
        },
        {
          "internalType": "string",
          "name": "ipfsHash",
          "type": "string"
        },
        {
          "internalType": "bool",
          "name": "signed",
          "type": "bool"
        }
      ],
      "stateMutability": "view",
      "type": "function"
    },
    {
      "inputs": [
        {
          "internalType": "address",
          "name": "_address",
          "type": "address"
        }
      ],
      "name": "getClaimsByAddress",
      "outputs": [
        {
          "internalType": "uint256[]",
          "name": "",
          "type": "uint256[]"
        }
      ],
      "stateMutability": "view",
      "type": "function"
    }
  ],
  "bytecode": "0x608060405234801561001057600080fd5b50611393806100206000396000f3fe608060405234801561001057600080fd5b50600436106100885760003560e01c8063c703bac81161005b578063c703bac81461012e578063d62aa1a11461015e578063edda01dd1461018e578063f41f0ad5146101aa57610088565b80635aef24471461008d5780635c16b6fe146100c05780638da4d3c9146100dc578063a888c2cd146100fa575b600080fd5b6100a760048036038101906100a29190610cad565b6101da565b6040516100b79493929190610f26565b60405180910390f35b6100da60048036038101906100d59190610cd6565b6102f2565b005b6100e4610492565b6040516100f191906110ae565b60405180910390f35b610114600480360381019061010f9190610cad565b610498565b604051610125959493929190610f72565b60405180910390f35b61014860048036038101906101439190610cad565b61062b565b6040516101559190610ff5565b60405180910390f35b61017860048036038101906101739190610be1565b610729565b6040516101859190610fd3565b60405180910390f35b6101a860048036038101906101a39190610c0a565b6107c0565b005b6101c460048036038101906101bf9190610c71565b610a7b565b6040516101d191906110ae565b60405180910390f35b600080606060008060008087815260200190815260200160002090508060000160009054906101000a900473ffffffffffffffffffffffffffffffffffffffff168160010160009054906101000a900473ffffffffffffffffffffffffffffffffffffffff16826002018360040160009054906101000a900460ff168180546102629061125f565b80601f016020809104026020016040519081016040528092919081815260200182805461028e9061125f565b80156102db5780601f106102b0576101008083540402835291602001916102db565b820191906000526020600020905b8154815290600101906020018083116102be57829003601f168201915b505050505091509450945094509450509193509193565b600080600085815260200190815260200160002090508060010160009054906101000a900473ffffffffffffffffffffffffffffffffffffffff1673ffffffffffffffffffffffffffffffffffffffff163373ffffffffffffffffffffffffffffffffffffffff161461039a576040517f08c379a00000000000000000000000000000000000000000000000000000000081526004016103919061106e565b60405180910390fd5b8060040160009054906101000a900460ff16156103ec576040517f08c379a00000000000000000000000000000000000000000000000000000000081526004016103e39061104e565b60405180910390fd5b60018160040160006101000a81548160ff02191690831515021790555082816003019080519060200190610421929190610aac565b508181600201908051906020019061043a929190610aac565b503373ffffffffffffffffffffffffffffffffffffffff16847fe99e532a1890568b471f3e1a178c1dfde61ff5edff38273b27796b79fc2997528585604051610484929190611017565b60405180910390a350505050565b60025481565b60006020528060005260406000206000915090508060000160009054906101000a900473ffffffffffffffffffffffffffffffffffffffff16908060010160009054906101000a900473ffffffffffffffffffffffffffffffffffffffff16908060020180546105079061125f565b80601f01602080910402602001604051908101604052809291908181526020018280546105339061125f565b80156105805780601f1061055557610100808354040283529160200191610580565b820191906000526020600020905b81548152906001019060200180831161056357829003601f168201915b5050505050908060030180546105959061125f565b80601f01602080910402602001604051908101604052809291908181526020018280546105c19061125f565b801561060e5780601f106105e35761010080835404028352916020019161060e565b820191906000526020600020905b8154815290600101906020018083116105f157829003601f168201915b5050505050908060040160009054906101000a900460ff16905085565b6060600080600084815260200190815260200160002090508060040160009054906101000a900460ff16610694576040517f08c379a000000000000000000000000000000000000000000000000000000000815260040161068b9061108e565b60405180910390fd5b8060030180546106a39061125f565b80601f01602080910402602001604051908101604052809291908181526020018280546106cf9061125f565b801561071c5780601f106106f15761010080835404028352916020019161071c565b820191906000526020600020905b8154815290600101906020018083116106ff57829003601f168201915b5050505050915050919050565b6060600160008373ffffffffffffffffffffffffffffffffffffffff1673ffffffffffffffffffffffffffffffffffffffff1681526020019081526020016000208054806020026020016040519081016040528092919081815260200182805480156107b457602002820191906000526020600020905b8154815260200190600101908083116107a0575b50505050509050919050565b6001600260008282546107d3919061117f565b925050819055506040518060a001604052808473ffffffffffffffffffffffffffffffffffffffff1681526020018373ffffffffffffffffffffffffffffffffffffffff16815260200182815260200160405180602001604052806000815250815260200160001515815250600080600254815260200190815260200160002060008201518160000160006101000a81548173ffffffffffffffffffffffffffffffffffffffff021916908373ffffffffffffffffffffffffffffffffffffffff16021790555060208201518160010160006101000a81548173ffffffffffffffffffffffffffffffffffffffff021916908373ffffffffffffffffffffffffffffffffffffffff16021790555060408201518160020190805190602001906108fd929190610aac565b50606082015181600301908051906020019061091a929190610aac565b5060808201518160040160006101000a81548160ff021916908315150217905550905050600160008473ffffffffffffffffffffffffffffffffffffffff1673ffffffffffffffffffffffffffffffffffffffff1681526020019081526020016000206002549080600181540180825580915050600190039060005260206000200160009091909190915055600160008373ffffffffffffffffffffffffffffffffffffffff1673ffffffffffffffffffffffffffffffffffffffff16815260200190815260200160002060025490806001815401808255809150506001900390600052602060002001600090919091909150558173ffffffffffffffffffffffffffffffffffffffff168373ffffffffffffffffffffffffffffffffffffffff166002547f3bfa8bbfd62c643be8aec08da36f7e4d276bf5d462b359f0e8cd841e5788583684604051610a6e9190610ff5565b60405180910390a4505050565b60016020528160005260406000208181548110610a9757600080fd5b90600052602060002001600091509150505481565b828054610ab89061125f565b90600052602060002090601f016020900481019282610ada5760008555610b21565b82601f10610af357805160ff1916838001178555610b21565b82800160010185558215610b21579182015b82811115610b20578251825591602001919060010190610b05565b5b509050610b2e9190610b32565b5090565b5b80821115610b4b576000816000905550600101610b33565b5090565b6000610b62610b5d846110fa565b6110c9565b905082815260208101848484011115610b7a57600080fd5b610b8584828561121d565b509392505050565b600081359050610b9c8161132f565b92915050565b600082601f830112610bb357600080fd5b8135610bc3848260208601610b4f565b91505092915050565b600081359050610bdb81611346565b92915050565b600060208284031215610bf357600080fd5b6000610c0184828501610b8d565b91505092915050565b600080600060608486031215610c1f57600080fd5b6000610c2d86828701610b8d565b9350506020610c3e86828701610b8d565b925050604084013567ffffffffffffffff811115610c5b57600080fd5b610c6786828701610ba2565b9150509250925092565b60008060408385031215610c8457600080fd5b6000610c9285828601610b8d565b9250506020610ca385828601610bcc565b9150509250929050565b600060208284031215610cbf57600080fd5b6000610ccd84828501610bcc565b91505092915050565b600080600060608486031215610ceb57600080fd5b6000610cf986828701610bcc565b935050602084013567ffffffffffffffff811115610d1657600080fd5b610d2286828701610ba2565b925050604084013567ffffffffffffffff811115610d3f57600080fd5b610d4b86828701610ba2565b9150509250925092565b6000610d618383610f08565b60208301905092915050565b610d76816111d5565b82525050565b6000610d878261113a565b610d91818561115d565b9350610d9c8361112a565b8060005b83811015610dcd578151610db48882610d55565b9750610dbf83611150565b925050600181019050610da0565b5085935050505092915050565b610de3816111e7565b82525050565b6000610df482611145565b610dfe818561116e565b9350610e0e81856020860161122c565b610e178161131e565b840191505092915050565b6000610e2f60178361116e565b91507f436c61696d20697320616c7265616479207369676e65640000000000000000006000830152602082019050919050565b6000610e6f60318361116e565b91507f4f6e6c79207468652064657369676e6174656420617574686f7269747920636160008301527f6e207369676e207468697320636c61696d0000000000000000000000000000006020830152604082019050919050565b6000610ed560108361116e565b91507f436c61696d206e6f74207369676e6564000000000000000000000000000000006000830152602082019050919050565b610f1181611213565b82525050565b610f2081611213565b82525050565b6000608082019050610f3b6000830187610d6d565b610f486020830186610d6d565b8181036040830152610f5a8185610de9565b9050610f696060830184610dda565b95945050505050565b600060a082019050610f876000830188610d6d565b610f946020830187610d6d565b8181036040830152610fa68186610de9565b90508181036060830152610fba8185610de9565b9050610fc96080830184610dda565b9695505050505050565b60006020820190508181036000830152610fed8184610d7c565b905092915050565b6000602082019050818103600083015261100f8184610de9565b905092915050565b600060408201905081810360008301526110318185610de9565b905081810360208301526110458184610de9565b90509392505050565b6000602082019050818103600083015261106781610e22565b9050919050565b6000602082019050818103600083015261108781610e62565b9050919050565b600060208201905081810360008301526110a781610ec8565b9050919050565b60006020820190506110c36000830184610f17565b92915050565b6000604051905081810181811067ffffffffffffffff821117156110f0576110ef6112ef565b5b8060405250919050565b600067ffffffffffffffff821115611115576111146112ef565b5b601f19601f8301169050602081019050919050565b6000819050602082019050919050565b600081519050919050565b600081519050919050565b6000602082019050919050565b600082825260208201905092915050565b600082825260208201905092915050565b600061118a82611213565b915061119583611213565b9250827fffffffffffffffffffffffffffffffffffffffffffffffffffffffffffffffff038211156111ca576111c9611291565b5b828201905092915050565b60006111e0826111f3565b9050919050565b60008115159050919050565b600073ffffffffffffffffffffffffffffffffffffffff82169050919050565b6000819050919050565b82818337600083830152505050565b60005b8381101561124a57808201518184015260208101905061122f565b83811115611259576000848401525b50505050565b6000600282049050600182168061127757607f821691505b6020821081141561128b5761128a6112c0565b5b50919050565b7f4e487b7100000000000000000000000000000000000000000000000000000000600052601160045260246000fd5b7f4e487b7100000000000000000000000000000000000000000000000000000000600052602260045260246000fd5b7f4e487b7100000000000000000000000000000000000000000000000000000000600052604160045260246000fd5b6000601f19601f8301169050919050565b611338816111d5565b811461134357600080fd5b50565b61134f81611213565b811461135a57600080fd5b5056fea2646970667358221220d16e0d5d1de48266f213559843bac8e938d6278fe543a3ca736bdf7a45e39b8664736f6c63430008000033",
  "immutableReferences": {},
  "source": "pragma solidity ^0.8.0;\n\ncontract Verify {\n    struct ClaimData {\n        address requester;\n        address authority;\n        string ipfsHash;\n        string signature;\n        bool signed;\n    }\n\n    mapping(uint256 => ClaimData) public claims;\n    mapping(address => uint256[]) public claimsByAddress;\n    uint256 public claimCount;\n\n    event ClaimCreated(uint256 indexed claimId, address indexed initiator, address indexed authority, string ipfsHash);\n    event ClaimSigned(uint256 indexed claimId, address indexed authority, string signature, string ipfsHash);\n\n    function createClaim(\n        address _requester,\n        address _authority,\n        string memory _ipfsHash\n    ) public {\n        claimCount += 1;\n\n        // Log the claim data being created\n        claims[claimCount] = ClaimData({\n            requester: _requester,\n            authority: _authority,\n            ipfsHash: _ipfsHash,\n            signature: \"\",\n            signed: false\n        });\n\n        // Push claim ID to claimsByAddress and emit them\n        claimsByAddress[_requester].push(claimCount);\n        claimsByAddress[_authority].push(claimCount);\n\n        // Emit the final ClaimCreated event\n        emit ClaimCreated(claimCount, _requester, _authority, _ipfsHash);\n    }\n\n    function signClaim(\n        uint256 _claimId,\n        string memory _signature,\n        string memory _ipfsHash  // Add ipfsHash parameter\n    ) public {\n        ClaimData storage claim = claims[_claimId];\n        require(msg.sender == claim.authority, \"Only the designated authority can sign this claim\");\n        require(!claim.signed, \"Claim is already signed\");\n\n        // Update the claim data with the signature and new IPFS hash\n        claim.signed = true;\n        claim.signature = _signature;\n        claim.ipfsHash = _ipfsHash;  // Overwrite the existing IPFS hash\n\n        // Emit event for the signed claim\n        emit ClaimSigned(_claimId, msg.sender, _signature, _ipfsHash);\n    }\n\n    function getCertSignature(uint256 _claimId) public view returns (string memory) {\n        ClaimData storage claim = claims[_claimId];\n        require(claim.signed, \"Claim not signed\");\n\n        return claim.signature;\n    }\n\n    function getClaim(uint256 _claimId) public view returns (\n        address requester,\n        address authority,\n        string memory ipfsHash,\n        bool signed\n    ) {\n        ClaimData storage claim = claims[_claimId];\n        return (\n            claim.requester,\n            claim.authority,\n            claim.ipfsHash,\n            claim.signed\n        );\n    }\n\n    function getClaimsByAddress(address _address) public view returns (uint256[] memory) {\n        return claimsByAddress[_address];\n    }\n}\n",
  "sourcePath": "C:\\Users\\Richard\\Documents\\DISS_VERIFY\\VerifyDjango\\contracts\\Verify.sol",
  "compiler": {
    "name": "solc",
    "version": "0.8.0+commit.c7dfd78e.Emscripten.clang"
  },
  "schemaVersion": "3.4.16",
  "updatedAt": "2024-09-11T21:14:17.782Z",
  "devdoc": {
    "kind": "dev",
    "methods": {},
    "version": 1
  },
  "userdoc": {
    "kind": "user",
    "methods": {},
    "version": 1
  }
}